{
    "_format": "hh-sol-artifact-1",
    "contractName": "OTPSystem",
    "sourceName": "src/contracts/OTPSystem.sol",
    "abi": [
        {
            "inputs": [],
            "stateMutability": "nonpayable",
            "type": "constructor"
        },
        {
            "inputs": [],
            "name": "AccessControlBadConfirmation",
            "type": "error"
        },
        {
            "inputs": [
                {
                    "internalType": "address",
                    "name": "account",
                    "type": "address"
                },
                {
                    "internalType": "bytes32",
                    "name": "neededRole",
                    "type": "bytes32"
                }
            ],
            "name": "AccessControlUnauthorizedAccount",
            "type": "error"
        },
        {
            "inputs": [],
            "name": "ECDSAInvalidSignature",
            "type": "error"
        },
        {
            "inputs": [
                {
                    "internalType": "uint256",
                    "name": "length",
                    "type": "uint256"
                }
            ],
            "name": "ECDSAInvalidSignatureLength",
            "type": "error"
        },
        {
            "inputs": [
                {
                    "internalType": "bytes32",
                    "name": "s",
                    "type": "bytes32"
                }
            ],
            "name": "ECDSAInvalidSignatureS",
            "type": "error"
        },
        {
            "inputs": [],
            "name": "InvalidShortString",
            "type": "error"
        },
        {
            "inputs": [
                {
                    "internalType": "string",
                    "name": "str",
                    "type": "string"
                }
            ],
            "name": "StringTooLong",
            "type": "error"
        },
        {
            "anonymous": false,
            "inputs": [],
            "name": "EIP712DomainChanged",
            "type": "event"
        },
        {
            "anonymous": false,
            "inputs": [
                {
                    "indexed": true,
                    "internalType": "bytes32",
                    "name": "transactionId",
                    "type": "bytes32"
                },
                {
                    "indexed": true,
                    "internalType": "address",
                    "name": "user",
                    "type": "address"
                }
            ],
            "name": "OtpRequested",
            "type": "event"
        },
        {
            "anonymous": false,
            "inputs": [
                {
                    "indexed": true,
                    "internalType": "bytes32",
                    "name": "transactionId",
                    "type": "bytes32"
                },
                {
                    "indexed": true,
                    "internalType": "address",
                    "name": "user",
                    "type": "address"
                },
                {
                    "indexed": false,
                    "internalType": "bool",
                    "name": "success",
                    "type": "bool"
                }
            ],
            "name": "OtpVerified",
            "type": "event"
        },
        {
            "anonymous": false,
            "inputs": [
                {
                    "indexed": true,
                    "internalType": "bytes32",
                    "name": "role",
                    "type": "bytes32"
                },
                {
                    "indexed": true,
                    "internalType": "bytes32",
                    "name": "previousAdminRole",
                    "type": "bytes32"
                },
                {
                    "indexed": true,
                    "internalType": "bytes32",
                    "name": "newAdminRole",
                    "type": "bytes32"
                }
            ],
            "name": "RoleAdminChanged",
            "type": "event"
        },
        {
            "anonymous": false,
            "inputs": [
                {
                    "indexed": true,
                    "internalType": "bytes32",
                    "name": "role",
                    "type": "bytes32"
                },
                {
                    "indexed": true,
                    "internalType": "address",
                    "name": "account",
                    "type": "address"
                },
                {
                    "indexed": true,
                    "internalType": "address",
                    "name": "sender",
                    "type": "address"
                }
            ],
            "name": "RoleGranted",
            "type": "event"
        },
        {
            "anonymous": false,
            "inputs": [
                {
                    "indexed": true,
                    "internalType": "bytes32",
                    "name": "role",
                    "type": "bytes32"
                },
                {
                    "indexed": true,
                    "internalType": "address",
                    "name": "account",
                    "type": "address"
                },
                {
                    "indexed": true,
                    "internalType": "address",
                    "name": "sender",
                    "type": "address"
                }
            ],
            "name": "RoleRevoked",
            "type": "event"
        },
        {
            "anonymous": false,
            "inputs": [
                {
                    "indexed": true,
                    "internalType": "address",
                    "name": "user",
                    "type": "address"
                }
            ],
            "name": "UserBlacklisted",
            "type": "event"
        },
        {
            "anonymous": false,
            "inputs": [
                {
                    "indexed": true,
                    "internalType": "address",
                    "name": "user",
                    "type": "address"
                }
            ],
            "name": "UserRemovedFromBlacklist",
            "type": "event"
        },
        {
            "inputs": [],
            "name": "ADMIN_ROLE",
            "outputs": [
                {
                    "internalType": "bytes32",
                    "name": "",
                    "type": "bytes32"
                }
            ],
            "stateMutability": "view",
            "type": "function"
        },
        {
            "inputs": [],
            "name": "DEFAULT_ADMIN_ROLE",
            "outputs": [
                {
                    "internalType": "bytes32",
                    "name": "",
                    "type": "bytes32"
                }
            ],
            "stateMutability": "view",
            "type": "function"
        },
        {
            "inputs": [
                {
                    "internalType": "address",
                    "name": "user",
                    "type": "address"
                }
            ],
            "name": "blacklistUser",
            "outputs": [],
            "stateMutability": "nonpayable",
            "type": "function"
        },
        {
            "inputs": [
                {
                    "internalType": "address",
                    "name": "",
                    "type": "address"
                }
            ],
            "name": "blacklisted",
            "outputs": [
                {
                    "internalType": "bool",
                    "name": "",
                    "type": "bool"
                }
            ],
            "stateMutability": "view",
            "type": "function"
        },
        {
            "inputs": [],
            "name": "eip712Domain",
            "outputs": [
                {
                    "internalType": "bytes1",
                    "name": "fields",
                    "type": "bytes1"
                },
                {
                    "internalType": "string",
                    "name": "name",
                    "type": "string"
                },
                {
                    "internalType": "string",
                    "name": "version",
                    "type": "string"
                },
                {
                    "internalType": "uint256",
                    "name": "chainId",
                    "type": "uint256"
                },
                {
                    "internalType": "address",
                    "name": "verifyingContract",
                    "type": "address"
                },
                {
                    "internalType": "bytes32",
                    "name": "salt",
                    "type": "bytes32"
                },
                {
                    "internalType": "uint256[]",
                    "name": "extensions",
                    "type": "uint256[]"
                }
            ],
            "stateMutability": "view",
            "type": "function"
        },
        {
            "inputs": [
                {
                    "internalType": "bytes32",
                    "name": "role",
                    "type": "bytes32"
                }
            ],
            "name": "getRoleAdmin",
            "outputs": [
                {
                    "internalType": "bytes32",
                    "name": "",
                    "type": "bytes32"
                }
            ],
            "stateMutability": "view",
            "type": "function"
        },
        {
            "inputs": [
                {
                    "internalType": "bytes32",
                    "name": "role",
                    "type": "bytes32"
                },
                {
                    "internalType": "address",
                    "name": "account",
                    "type": "address"
                }
            ],
            "name": "grantRole",
            "outputs": [],
            "stateMutability": "nonpayable",
            "type": "function"
        },
        {
            "inputs": [
                {
                    "internalType": "bytes32",
                    "name": "role",
                    "type": "bytes32"
                },
                {
                    "internalType": "address",
                    "name": "account",
                    "type": "address"
                }
            ],
            "name": "hasRole",
            "outputs": [
                {
                    "internalType": "bool",
                    "name": "",
                    "type": "bool"
                }
            ],
            "stateMutability": "view",
            "type": "function"
        },
        {
            "inputs": [
                {
                    "components": [
                        {
                            "internalType": "bytes32",
                            "name": "transactionId",
                            "type": "bytes32"
                        },
                        {
                            "internalType": "bytes32",
                            "name": "hashedOtp",
                            "type": "bytes32"
                        },
                        {
                            "internalType": "address",
                            "name": "userAddress",
                            "type": "address"
                        },
                        {
                            "internalType": "uint256",
                            "name": "expirationTime",
                            "type": "uint256"
                        }
                    ],
                    "internalType": "struct OTPSystem.OTPRequest",
                    "name": "request",
                    "type": "tuple"
                }
            ],
            "name": "hashOtpRequest",
            "outputs": [
                {
                    "internalType": "bytes32",
                    "name": "",
                    "type": "bytes32"
                }
            ],
            "stateMutability": "view",
            "type": "function"
        },
        {
            "inputs": [
                {
                    "internalType": "bytes32",
                    "name": "transactionId",
                    "type": "bytes32"
                }
            ],
            "name": "isOtpValid",
            "outputs": [
                {
                    "internalType": "bool",
                    "name": "valid",
                    "type": "bool"
                }
            ],
            "stateMutability": "view",
            "type": "function"
        },
        {
            "inputs": [
                {
                    "internalType": "bytes32",
                    "name": "",
                    "type": "bytes32"
                }
            ],
            "name": "isUsed",
            "outputs": [
                {
                    "internalType": "bool",
                    "name": "",
                    "type": "bool"
                }
            ],
            "stateMutability": "view",
            "type": "function"
        },
        {
            "inputs": [
                {
                    "internalType": "bytes32",
                    "name": "",
                    "type": "bytes32"
                }
            ],
            "name": "otpRecords",
            "outputs": [
                {
                    "internalType": "bytes32",
                    "name": "transactionId",
                    "type": "bytes32"
                },
                {
                    "internalType": "bytes32",
                    "name": "hashedOtp",
                    "type": "bytes32"
                },
                {
                    "internalType": "address",
                    "name": "userAddress",
                    "type": "address"
                },
                {
                    "internalType": "uint256",
                    "name": "expirationTime",
                    "type": "uint256"
                }
            ],
            "stateMutability": "view",
            "type": "function"
        },
        {
            "inputs": [
                {
                    "internalType": "address",
                    "name": "user",
                    "type": "address"
                }
            ],
            "name": "removeUserFromBlacklist",
            "outputs": [],
            "stateMutability": "nonpayable",
            "type": "function"
        },
        {
            "inputs": [
                {
                    "internalType": "bytes32",
                    "name": "role",
                    "type": "bytes32"
                },
                {
                    "internalType": "address",
                    "name": "callerConfirmation",
                    "type": "address"
                }
            ],
            "name": "renounceRole",
            "outputs": [],
            "stateMutability": "nonpayable",
            "type": "function"
        },
        {
            "inputs": [
                {
                    "components": [
                        {
                            "internalType": "bytes32",
                            "name": "transactionId",
                            "type": "bytes32"
                        },
                        {
                            "internalType": "bytes32",
                            "name": "hashedOtp",
                            "type": "bytes32"
                        },
                        {
                            "internalType": "address",
                            "name": "userAddress",
                            "type": "address"
                        },
                        {
                            "internalType": "uint256",
                            "name": "expirationTime",
                            "type": "uint256"
                        }
                    ],
                    "internalType": "struct OTPSystem.OTPRequest",
                    "name": "request",
                    "type": "tuple"
                },
                {
                    "internalType": "bytes",
                    "name": "signature",
                    "type": "bytes"
                }
            ],
            "name": "requestOtp",
            "outputs": [],
            "stateMutability": "nonpayable",
            "type": "function"
        },
        {
            "inputs": [
                {
                    "internalType": "bytes32",
                    "name": "transactionId",
                    "type": "bytes32"
                }
            ],
            "name": "resetOtp",
            "outputs": [],
            "stateMutability": "nonpayable",
            "type": "function"
        },
        {
            "inputs": [
                {
                    "internalType": "bytes32",
                    "name": "role",
                    "type": "bytes32"
                },
                {
                    "internalType": "address",
                    "name": "account",
                    "type": "address"
                }
            ],
            "name": "revokeRole",
            "outputs": [],
            "stateMutability": "nonpayable",
            "type": "function"
        },
        {
            "inputs": [
                {
                    "internalType": "bytes4",
                    "name": "interfaceId",
                    "type": "bytes4"
                }
            ],
            "name": "supportsInterface",
            "outputs": [
                {
                    "internalType": "bool",
                    "name": "",
                    "type": "bool"
                }
            ],
            "stateMutability": "view",
            "type": "function"
        },
        {
            "inputs": [
                {
                    "internalType": "bytes32",
                    "name": "transactionId",
                    "type": "bytes32"
                },
                {
                    "internalType": "bytes32",
                    "name": "hashedOtp",
                    "type": "bytes32"
                }
            ],
            "name": "verifyOtp",
            "outputs": [
                {
                    "internalType": "bool",
                    "name": "success",
                    "type": "bool"
                }
            ],
            "stateMutability": "nonpayable",
            "type": "function"
        },
        {
            "inputs": [
                {
                    "components": [
                        {
                            "internalType": "bytes32",
                            "name": "transactionId",
                            "type": "bytes32"
                        },
                        {
                            "internalType": "bytes32",
                            "name": "hashedOtp",
                            "type": "bytes32"
                        },
                        {
                            "internalType": "address",
                            "name": "userAddress",
                            "type": "address"
                        },
                        {
                            "internalType": "uint256",
                            "name": "expirationTime",
                            "type": "uint256"
                        }
                    ],
                    "internalType": "struct OTPSystem.OTPRequest",
                    "name": "request",
                    "type": "tuple"
                },
                {
                    "internalType": "bytes",
                    "name": "signature",
                    "type": "bytes"
                },
                {
                    "internalType": "address",
                    "name": "expectedSigner",
                    "type": "address"
                }
            ],
            "name": "verifySignature",
            "outputs": [
                {
                    "internalType": "bool",
                    "name": "",
                    "type": "bool"
                }
            ],
            "stateMutability": "view",
            "type": "function"
        }
    ],
    "bytecode": "0x61016060405234801561001157600080fd5b506040518060400160405280600981526020017f4f545053797374656d00000000000000000000000000000000000000000000008152506040518060400160405280600181526020017f310000000000000000000000000000000000000000000000000000000000000081525061009260008361014160201b90919060201c565b61012081815250506100ae60018261014160201b90919060201c565b6101408181525050818051906020012060e08181525050808051906020012061010081815250504660a081815250506100eb61019160201b60201c565b608081815250503073ffffffffffffffffffffffffffffffffffffffff1660c08173ffffffffffffffffffffffffffffffffffffffff1681525050505061013b6000801b336101ec60201b60201c565b506108eb565b60006020835110156101635761015c836102ea60201b60201c565b905061018b565b826101738361035260201b60201c565b6000019081610182919061061f565b5060ff60001b90505b92915050565b60007f8b73c3c69bb8fe3d512ecc4cf759cc79239f7b179b0ffacaa9a75d522b39400f60e0516101005146306040516020016101d195949392919061075a565b60405160208183030381529060405280519060200120905090565b60006101fe838361035c60201b60201c565b6102df5760016002600085815260200190815260200160002060000160008473ffffffffffffffffffffffffffffffffffffffff1673ffffffffffffffffffffffffffffffffffffffff16815260200190815260200160002060006101000a81548160ff02191690831515021790555061027c6103c760201b60201c565b73ffffffffffffffffffffffffffffffffffffffff168273ffffffffffffffffffffffffffffffffffffffff16847f2f8788117e7eff1d82e926ec794901d17c78024a50270940304540a733656f0d60405160405180910390a4600190506102e4565b600090505b92915050565b600080829050601f8151111561033757826040517f305a27a900000000000000000000000000000000000000000000000000000000815260040161032e9190610832565b60405180910390fd5b80518161034390610884565b60001c1760001b915050919050565b6000819050919050565b60006002600084815260200190815260200160002060000160008373ffffffffffffffffffffffffffffffffffffffff1673ffffffffffffffffffffffffffffffffffffffff16815260200190815260200160002060009054906101000a900460ff16905092915050565b600033905090565b600081519050919050565b7f4e487b7100000000000000000000000000000000000000000000000000000000600052604160045260246000fd5b7f4e487b7100000000000000000000000000000000000000000000000000000000600052602260045260246000fd5b6000600282049050600182168061045057607f821691505b60208210810361046357610462610409565b5b50919050565b60008190508160005260206000209050919050565b60006020601f8301049050919050565b600082821b905092915050565b6000600883026104cb7fffffffffffffffffffffffffffffffffffffffffffffffffffffffffffffffff8261048e565b6104d5868361048e565b95508019841693508086168417925050509392505050565b6000819050919050565b6000819050919050565b600061051c610517610512846104ed565b6104f7565b6104ed565b9050919050565b6000819050919050565b61053683610501565b61054a61054282610523565b84845461049b565b825550505050565b600090565b61055f610552565b61056a81848461052d565b505050565b5b8181101561058e57610583600082610557565b600181019050610570565b5050565b601f8211156105d3576105a481610469565b6105ad8461047e565b810160208510156105bc578190505b6105d06105c88561047e565b83018261056f565b50505b505050565b600082821c905092915050565b60006105f6600019846008026105d8565b1980831691505092915050565b600061060f83836105e5565b9150826002028217905092915050565b610628826103cf565b67ffffffffffffffff811115610641576106406103da565b5b61064b8254610438565b610656828285610592565b600060209050601f8311600181146106895760008415610677578287015190505b6106818582610603565b8655506106e9565b601f19841661069786610469565b60005b828110156106bf5784890151825560018201915060208501945060208101905061069a565b868310156106dc57848901516106d8601f8916826105e5565b8355505b6001600288020188555050505b505050505050565b6000819050919050565b610704816106f1565b82525050565b610713816104ed565b82525050565b600073ffffffffffffffffffffffffffffffffffffffff82169050919050565b600061074482610719565b9050919050565b61075481610739565b82525050565b600060a08201905061076f60008301886106fb565b61077c60208301876106fb565b61078960408301866106fb565b610796606083018561070a565b6107a3608083018461074b565b9695505050505050565b600082825260208201905092915050565b60005b838110156107dc5780820151818401526020810190506107c1565b60008484015250505050565b6000601f19601f8301169050919050565b6000610804826103cf565b61080e81856107ad565b935061081e8185602086016107be565b610827816107e8565b840191505092915050565b6000602082019050818103600083015261084c81846107f9565b905092915050565b600081519050919050565b6000819050602082019050919050565b600061087b82516106f1565b80915050919050565b600061088f82610854565b826108998461085f565b90506108a48161086f565b925060208210156108e4576108df7fffffffffffffffffffffffffffffffffffffffffffffffffffffffffffffffff8360200360080261048e565b831692505b5050919050565b60805160a05160c05160e0516101005161012051610140516124fb61094560003960006111b50152600061117a01526000611612015260006115f101526000611268015260006112be015260006112e701526124fb6000f3fe608060405234801561001057600080fd5b506004361061012c5760003560e01c806391d14854116100ad578063dbac26e911610071578063dbac26e91461036d578063edaa76e81461039d578063fba12152146103b9578063fcbca456146103ec578063fe255a18146104085761012c565b806391d14854146102a3578063a217fddf146102d3578063af113012146102f1578063cbc1027c14610321578063d547741f146103515761012c565b806336568abe116100f457806336568abe146101f95780636434fe4a1461021557806375b238fc1461024557806384b0196e14610263578063892ee1a2146102875761012c565b806301ffc9a7146101315780631ff22b6914610161578063248a9ca31461017d5780632f2ff15d146101ad57806333cb5254146101c9575b600080fd5b61014b60048036038101906101469190611886565b610438565b60405161015891906118ce565b60405180910390f35b61017b6004803603810190610176919061191f565b6104b2565b005b6101976004803603810190610192919061191f565b61058d565b6040516101a4919061195b565b60405180910390f35b6101c760048036038101906101c291906119d4565b6105ad565b005b6101e360048036038101906101de9190611b53565b6105cf565b6040516101f0919061195b565b60405180910390f35b610213600480360381019061020e91906119d4565b61063f565b005b61022f600480360381019061022a919061191f565b6106ba565b60405161023c91906118ce565b60405180910390f35b61024d61070c565b60405161025a919061195b565b60405180910390f35b61026b610730565b60405161027e9796959493929190611d16565b60405180910390f35b6102a1600480360381019061029c9190611d9a565b6107da565b005b6102bd60048036038101906102b891906119d4565b6108a3565b6040516102ca91906118ce565b60405180910390f35b6102db61090e565b6040516102e8919061195b565b60405180910390f35b61030b60048036038101906103069190611dc7565b610915565b60405161031891906118ce565b60405180910390f35b61033b60048036038101906103369190611ec1565b610ac6565b60405161034891906118ce565b60405180910390f35b61036b600480360381019061036691906119d4565b610b1c565b005b61038760048036038101906103829190611d9a565b610b3e565b60405161039491906118ce565b60405180910390f35b6103b760048036038101906103b29190611f30565b610b5e565b005b6103d360048036038101906103ce919061191f565b610db3565b6040516103e39493929190611f8c565b60405180910390f35b61040660048036038101906104019190611d9a565b610e03565b005b610422600480360381019061041d919061191f565b610ecc565b60405161042f91906118ce565b60405180910390f35b60007f7965db0b000000000000000000000000000000000000000000000000000000007bffffffffffffffffffffffffffffffffffffffffffffffffffffffff1916827bffffffffffffffffffffffffffffffffffffffffffffffffffffffff191614806104ab57506104aa82610eec565b5b9050919050565b7fa49807205ce4d355092ef5a8a18f56e8913cf4a201fbe287825b095693c217756104dc81610f56565b42600360008481526020019081526020016000206003015410610534576040517f08c379a000000000000000000000000000000000000000000000000000000000815260040161052b9061201d565b60405180910390fd5b6003600083815260200190815260200160002060008082016000905560018201600090556002820160006101000a81549073ffffffffffffffffffffffffffffffffffffffff0219169055600382016000905550505050565b600060026000838152602001908152602001600020600101549050919050565b6105b68261058d565b6105bf81610f56565b6105c98383610f6a565b50505050565b60006106387f9a02d9aadb4217c56387f3f2b908542d31d4e26cf9228168e5badfefad4e55d4836000015184602001518560400151866060015160405160200161061d95949392919061203d565b6040516020818303038152906040528051906020012061105c565b9050919050565b610647611076565b73ffffffffffffffffffffffffffffffffffffffff168173ffffffffffffffffffffffffffffffffffffffff16146106ab576040517f6697b23200000000000000000000000000000000000000000000000000000000815260040160405180910390fd5b6106b5828261107e565b505050565b6000806003600084815260200190815260200160002090504281600301541015801561070457506004600084815260200190815260200160002060009054906101000a900460ff16155b915050919050565b7fa49807205ce4d355092ef5a8a18f56e8913cf4a201fbe287825b095693c2177581565b600060608060008060006060610744611171565b61074c6111ac565b46306000801b600067ffffffffffffffff81111561076d5761076c611a2a565b5b60405190808252806020026020018201604052801561079b5781602001602082028036833780820191505090505b507f0f00000000000000000000000000000000000000000000000000000000000000959493929190965096509650965096509650965090919293949596565b7fa49807205ce4d355092ef5a8a18f56e8913cf4a201fbe287825b095693c2177561080481610f56565b6000600560008473ffffffffffffffffffffffffffffffffffffffff1673ffffffffffffffffffffffffffffffffffffffff16815260200190815260200160002060006101000a81548160ff0219169083151502179055508173ffffffffffffffffffffffffffffffffffffffff167f35bef39900b57de8fa0e0c77219a7f3d0f1e79ca057d456e02a590e8631413cf60405160405180910390a25050565b60006002600084815260200190815260200160002060000160008373ffffffffffffffffffffffffffffffffffffffff1673ffffffffffffffffffffffffffffffffffffffff16815260200190815260200160002060009054906101000a900460ff16905092915050565b6000801b81565b6000806003600085815260200190815260200160002090504281600301541015610974576040517f08c379a000000000000000000000000000000000000000000000000000000000815260040161096b906120dc565b60405180910390fd5b6004600085815260200190815260200160002060009054906101000a900460ff16156109d5576040517f08c379a00000000000000000000000000000000000000000000000000000000081526004016109cc90612148565b60405180910390fd5b82816001015414610a1b576040517f08c379a0000000000000000000000000000000000000000000000000000000008152600401610a12906121b4565b60405180910390fd5b60016004600086815260200190815260200160002060006101000a81548160ff0219169083151502179055508060020160009054906101000a900473ffffffffffffffffffffffffffffffffffffffff1673ffffffffffffffffffffffffffffffffffffffff16847fd9a34f5304cfb41009133087734c7ab51925e8f26fa5f2a833a54dc2dd7434db6001604051610ab391906118ce565b60405180910390a3600191505092915050565b600080610ad2856105cf565b90506000610ae082866111e7565b90508373ffffffffffffffffffffffffffffffffffffffff168173ffffffffffffffffffffffffffffffffffffffff1614925050509392505050565b610b258261058d565b610b2e81610f56565b610b38838361107e565b50505050565b60056020528060005260406000206000915054906101000a900460ff1681565b8160400151600560008273ffffffffffffffffffffffffffffffffffffffff1673ffffffffffffffffffffffffffffffffffffffff16815260200190815260200160002060009054906101000a900460ff1615610bf0576040517f08c379a0000000000000000000000000000000000000000000000000000000008152600401610be790612220565b60405180910390fd5b610bff83838560400151610ac6565b610c3e576040517f08c379a0000000000000000000000000000000000000000000000000000000008152600401610c359061228c565b60405180910390fd5b600060036000856000015181526020019081526020016000206003015414610c9b576040517f08c379a0000000000000000000000000000000000000000000000000000000008152600401610c929061231e565b60405180910390fd5b4283606001511015610ce2576040517f08c379a0000000000000000000000000000000000000000000000000000000008152600401610cd9906120dc565b60405180910390fd5b826003600085600001518152602001908152602001600020600082015181600001556020820151816001015560408201518160020160006101000a81548173ffffffffffffffffffffffffffffffffffffffff021916908373ffffffffffffffffffffffffffffffffffffffff16021790555060608201518160030155905050826040015173ffffffffffffffffffffffffffffffffffffffff1683600001517ff32870d5a203be8e8a40d05c53ed6bf4b429e8a53b65ec0cba9b343580530e0060405160405180910390a3505050565b60036020528060005260406000206000915090508060000154908060010154908060020160009054906101000a900473ffffffffffffffffffffffffffffffffffffffff16908060030154905084565b7fa49807205ce4d355092ef5a8a18f56e8913cf4a201fbe287825b095693c21775610e2d81610f56565b6001600560008473ffffffffffffffffffffffffffffffffffffffff1673ffffffffffffffffffffffffffffffffffffffff16815260200190815260200160002060006101000a81548160ff0219169083151502179055508173ffffffffffffffffffffffffffffffffffffffff167f7f8b7dc89dae85811a7a85800b892b5816ad5d381c856f1b56490f8fc470c9cb60405160405180910390a25050565b60046020528060005260406000206000915054906101000a900460ff1681565b60007f01ffc9a7000000000000000000000000000000000000000000000000000000007bffffffffffffffffffffffffffffffffffffffffffffffffffffffff1916827bffffffffffffffffffffffffffffffffffffffffffffffffffffffff1916149050919050565b610f6781610f62611076565b611213565b50565b6000610f7683836108a3565b6110515760016002600085815260200190815260200160002060000160008473ffffffffffffffffffffffffffffffffffffffff1673ffffffffffffffffffffffffffffffffffffffff16815260200190815260200160002060006101000a81548160ff021916908315150217905550610fee611076565b73ffffffffffffffffffffffffffffffffffffffff168273ffffffffffffffffffffffffffffffffffffffff16847f2f8788117e7eff1d82e926ec794901d17c78024a50270940304540a733656f0d60405160405180910390a460019050611056565b600090505b92915050565b600061106f611069611264565b8361131b565b9050919050565b600033905090565b600061108a83836108a3565b156111665760006002600085815260200190815260200160002060000160008473ffffffffffffffffffffffffffffffffffffffff1673ffffffffffffffffffffffffffffffffffffffff16815260200190815260200160002060006101000a81548160ff021916908315150217905550611103611076565b73ffffffffffffffffffffffffffffffffffffffff168273ffffffffffffffffffffffffffffffffffffffff16847ff6391f5c32d9c69d2a47ea670b442974b53935d1edc7fd64eb21e047a839171b60405160405180910390a46001905061116b565b600090505b92915050565b60606111a760007f000000000000000000000000000000000000000000000000000000000000000061135c90919063ffffffff16565b905090565b60606111e260017f000000000000000000000000000000000000000000000000000000000000000061135c90919063ffffffff16565b905090565b6000806000806111f7868661140c565b9250925092506112078282611468565b82935050505092915050565b61121d82826108a3565b6112605780826040517fe2517d3f00000000000000000000000000000000000000000000000000000000815260040161125792919061233e565b60405180910390fd5b5050565b60007f000000000000000000000000000000000000000000000000000000000000000073ffffffffffffffffffffffffffffffffffffffff163073ffffffffffffffffffffffffffffffffffffffff161480156112e057507f000000000000000000000000000000000000000000000000000000000000000046145b1561130d577f00000000000000000000000000000000000000000000000000000000000000009050611318565b6113156115cc565b90505b90565b60006040517f190100000000000000000000000000000000000000000000000000000000000081528360028201528260228201526042812091505092915050565b606060ff60001b83146113795761137283611662565b9050611406565b81805461138590612396565b80601f01602080910402602001604051908101604052809291908181526020018280546113b190612396565b80156113fe5780601f106113d3576101008083540402835291602001916113fe565b820191906000526020600020905b8154815290600101906020018083116113e157829003601f168201915b505050505090505b92915050565b600080600060418451036114515760008060006020870151925060408701519150606087015160001a9050611443888285856116d6565b955095509550505050611461565b60006002855160001b9250925092505b9250925092565b6000600381111561147c5761147b6123c7565b5b82600381111561148f5761148e6123c7565b5b03156115c857600160038111156114a9576114a86123c7565b5b8260038111156114bc576114bb6123c7565b5b036114f3576040517ff645eedf00000000000000000000000000000000000000000000000000000000815260040160405180910390fd5b60026003811115611507576115066123c7565b5b82600381111561151a576115196123c7565b5b0361155f578060001c6040517ffce698f700000000000000000000000000000000000000000000000000000000815260040161155691906123f6565b60405180910390fd5b600380811115611572576115716123c7565b5b826003811115611585576115846123c7565b5b036115c757806040517fd78bce0c0000000000000000000000000000000000000000000000000000000081526004016115be919061195b565b60405180910390fd5b5b5050565b60007f8b73c3c69bb8fe3d512ecc4cf759cc79239f7b179b0ffacaa9a75d522b39400f7f00000000000000000000000000000000000000000000000000000000000000007f00000000000000000000000000000000000000000000000000000000000000004630604051602001611647959493929190612411565b60405160208183030381529060405280519060200120905090565b6060600061166f836117ca565b90506000602067ffffffffffffffff81111561168e5761168d611a2a565b5b6040519080825280601f01601f1916602001820160405280156116c05781602001600182028036833780820191505090505b5090508181528360208201528092505050919050565b60008060007f7fffffffffffffffffffffffffffffff5d576e7357a4501ddfe92f46681b20a08460001c11156117165760006003859250925092506117c0565b60006001888888886040516000815260200160405260405161173b9493929190612480565b6020604051602081039080840390855afa15801561175d573d6000803e3d6000fd5b505050602060405103519050600073ffffffffffffffffffffffffffffffffffffffff168173ffffffffffffffffffffffffffffffffffffffff16036117b157600060016000801b935093509350506117c0565b8060008060001b935093509350505b9450945094915050565b60008060ff8360001c169050601f811115611811576040517fb3512b0c00000000000000000000000000000000000000000000000000000000815260040160405180910390fd5b80915050919050565b6000604051905090565b600080fd5b600080fd5b60007fffffffff0000000000000000000000000000000000000000000000000000000082169050919050565b6118638161182e565b811461186e57600080fd5b50565b6000813590506118808161185a565b92915050565b60006020828403121561189c5761189b611824565b5b60006118aa84828501611871565b91505092915050565b60008115159050919050565b6118c8816118b3565b82525050565b60006020820190506118e360008301846118bf565b92915050565b6000819050919050565b6118fc816118e9565b811461190757600080fd5b50565b600081359050611919816118f3565b92915050565b60006020828403121561193557611934611824565b5b60006119438482850161190a565b91505092915050565b611955816118e9565b82525050565b6000602082019050611970600083018461194c565b92915050565b600073ffffffffffffffffffffffffffffffffffffffff82169050919050565b60006119a182611976565b9050919050565b6119b181611996565b81146119bc57600080fd5b50565b6000813590506119ce816119a8565b92915050565b600080604083850312156119eb576119ea611824565b5b60006119f98582860161190a565b9250506020611a0a858286016119bf565b9150509250929050565b600080fd5b6000601f19601f8301169050919050565b7f4e487b7100000000000000000000000000000000000000000000000000000000600052604160045260246000fd5b611a6282611a19565b810181811067ffffffffffffffff82111715611a8157611a80611a2a565b5b80604052505050565b6000611a9461181a565b9050611aa08282611a59565b919050565b6000819050919050565b611ab881611aa5565b8114611ac357600080fd5b50565b600081359050611ad581611aaf565b92915050565b600060808284031215611af157611af0611a14565b5b611afb6080611a8a565b90506000611b0b8482850161190a565b6000830152506020611b1f8482850161190a565b6020830152506040611b33848285016119bf565b6040830152506060611b4784828501611ac6565b60608301525092915050565b600060808284031215611b6957611b68611824565b5b6000611b7784828501611adb565b91505092915050565b60007fff0000000000000000000000000000000000000000000000000000000000000082169050919050565b611bb581611b80565b82525050565b600081519050919050565b600082825260208201905092915050565b60005b83811015611bf5578082015181840152602081019050611bda565b60008484015250505050565b6000611c0c82611bbb565b611c168185611bc6565b9350611c26818560208601611bd7565b611c2f81611a19565b840191505092915050565b611c4381611aa5565b82525050565b611c5281611996565b82525050565b600081519050919050565b600082825260208201905092915050565b6000819050602082019050919050565b611c8d81611aa5565b82525050565b6000611c9f8383611c84565b60208301905092915050565b6000602082019050919050565b6000611cc382611c58565b611ccd8185611c63565b9350611cd883611c74565b8060005b83811015611d09578151611cf08882611c93565b9750611cfb83611cab565b925050600181019050611cdc565b5085935050505092915050565b600060e082019050611d2b600083018a611bac565b8181036020830152611d3d8189611c01565b90508181036040830152611d518188611c01565b9050611d606060830187611c3a565b611d6d6080830186611c49565b611d7a60a083018561194c565b81810360c0830152611d8c8184611cb8565b905098975050505050505050565b600060208284031215611db057611daf611824565b5b6000611dbe848285016119bf565b91505092915050565b60008060408385031215611dde57611ddd611824565b5b6000611dec8582860161190a565b9250506020611dfd8582860161190a565b9150509250929050565b600080fd5b600080fd5b600067ffffffffffffffff821115611e2c57611e2b611a2a565b5b611e3582611a19565b9050602081019050919050565b82818337600083830152505050565b6000611e64611e5f84611e11565b611a8a565b905082815260208101848484011115611e8057611e7f611e0c565b5b611e8b848285611e42565b509392505050565b600082601f830112611ea857611ea7611e07565b5b8135611eb8848260208601611e51565b91505092915050565b600080600060c08486031215611eda57611ed9611824565b5b6000611ee886828701611adb565b935050608084013567ffffffffffffffff811115611f0957611f08611829565b5b611f1586828701611e93565b92505060a0611f26868287016119bf565b9150509250925092565b60008060a08385031215611f4757611f46611824565b5b6000611f5585828601611adb565b925050608083013567ffffffffffffffff811115611f7657611f75611829565b5b611f8285828601611e93565b9150509250929050565b6000608082019050611fa1600083018761194c565b611fae602083018661194c565b611fbb6040830185611c49565b611fc86060830184611c3a565b95945050505050565b7f4f5450206973207374696c6c2076616c69640000000000000000000000000000600082015250565b6000612007601283611bc6565b915061201282611fd1565b602082019050919050565b6000602082019050818103600083015261203681611ffa565b9050919050565b600060a082019050612052600083018861194c565b61205f602083018761194c565b61206c604083018661194c565b6120796060830185611c49565b6120866080830184611c3a565b9695505050505050565b7f4f54502068617320657870697265640000000000000000000000000000000000600082015250565b60006120c6600f83611bc6565b91506120d182612090565b602082019050919050565b600060208201905081810360008301526120f5816120b9565b9050919050565b7f4f54502068617320616c7265616479206265656e207573656400000000000000600082015250565b6000612132601983611bc6565b915061213d826120fc565b602082019050919050565b6000602082019050818103600083015261216181612125565b9050919050565b7f496e76616c6964204f5450000000000000000000000000000000000000000000600082015250565b600061219e600b83611bc6565b91506121a982612168565b602082019050919050565b600060208201905081810360008301526121cd81612191565b9050919050565b7f5573657220697320626c61636b6c697374656400000000000000000000000000600082015250565b600061220a601383611bc6565b9150612215826121d4565b602082019050919050565b60006020820190508181036000830152612239816121fd565b9050919050565b7f496e76616c6964207369676e6174757265000000000000000000000000000000600082015250565b6000612276601183611bc6565b915061228182612240565b602082019050919050565b600060208201905081810360008301526122a581612269565b9050919050565b7f4f545020616c72656164792065786973747320666f722074686973207472616e60008201527f73616374696f6e20494400000000000000000000000000000000000000000000602082015250565b6000612308602a83611bc6565b9150612313826122ac565b604082019050919050565b60006020820190508181036000830152612337816122fb565b9050919050565b60006040820190506123536000830185611c49565b612360602083018461194c565b9392505050565b7f4e487b7100000000000000000000000000000000000000000000000000000000600052602260045260246000fd5b600060028204905060018216806123ae57607f821691505b6020821081036123c1576123c0612367565b5b50919050565b7f4e487b7100000000000000000000000000000000000000000000000000000000600052602160045260246000fd5b600060208201905061240b6000830184611c3a565b92915050565b600060a082019050612426600083018861194c565b612433602083018761194c565b612440604083018661194c565b61244d6060830185611c3a565b61245a6080830184611c49565b9695505050505050565b600060ff82169050919050565b61247a81612464565b82525050565b6000608082019050612495600083018761194c565b6124a26020830186612471565b6124af604083018561194c565b6124bc606083018461194c565b9594505050505056fea26469706673582212202c6257edca335652f1b26e2a3e27014ad9b2ac864008ed8394039af008d4b2aa64736f6c634300081c0033",
    "linkReferences": {},
    "deployedLinkReferences": {}
}